:100000006F00D02813000000130000001300000050
:100010001300000013000000130000001300000094
:100020001300000013000000130000001300000084
:08003000130000007300100032
:100038006FF09FFC000000006F0000166F00E015D5
:1000480000000000000000000000000000000000A8
:100058000000000000000000000000000000000098
:100068006F003022000000006F00B0210000000087
:100078006F0030216F00F0206F00B0206F007020FB
:100088006F0030206F00F01F6F00B01F6F00701FEF
:100098006F00301F6F00F01E6F00B01E6F00701EE3
:1000A8006F00301E6F00F01D6F00B01D6F00701DD7
:1000B8006F00301D6F00F01C6F00B01C00000000C6
:1000C8000000000000000000000000006F00701B2E
:1000D8006F00301B6F00F01A6F00B01A6F00701AB3
:1000E8006F00301A6F00F0196F00B0196F007019A7
:1000F8006F0030196F00F0186F00B0186F0070189B
:100108006F0030186F00F0176F00B0176F0070178E
:100118006F0030176F00F0166F00B0166F00701682
:1001280000000000000000000000000000000000C7
:080138000000000000000000BF
:10014000397101436EC619A0397141536AC866CA34
:1001500062CC5ECE19A0397101535AD056D252D416
:100160004ED64AD826DA22DC06DE3301614082828E
:1001700041114AC026C222C406C68282B24D410144
:10018000024D924C224CB24B4101024B924A224A00
:10019000B2494101024992442244B2404101828065
:1001A00001A001A0EFF2DFFC371401402A89A1442D
:1001B000130404C093178901E1878945228563C828
:1001C0000702EF0010211305A00AEF00302E894529
:1001D0002285EF005020FD141305A00A060993F4B0
:1001E000F40FEF00B02C1379F90FE9F465B7EF00C5
:1001F000901E1305A00AEF00702B89452285EF00A1
:10020000501DD1BFEFF2DFF6371401401305048013
:100210008945EF00101C1305048091458564EF00AB
:10022000901B01449384C4E013094024B3878400E5
:1002300003C507000504BD37E31A24FF3714014046
:10024000130504808945EF00D018914513050480FB
:10025000EF00701881B7EFF21FF03714014013055B
:1002600004C0A165EF003017130504C08965EF00D5
:1002700090168565130504C0EF00B0150545EF0025
:10028000F025130504C0856537190140EF00B0144F
:10029000A14913046006930409C093178401E18700
:1002A000A165268563DD0708EF00B0128965268504
:1002B000EF003012060489652685FD191374F40FCA
:1002C000EF007011E39B09FC130509C08565EF0081
:1002D0005010130509C08565B7140140EF00B00F39
:1002E000A14913049009138904C093178401E1877D
:1002F000A1654A8563D80704EF00B00D89654A857A
:10030000EF00300D060489654A85FD191374F40F5A
:10031000EF00700CE39B09FC138504C08565EF00BA
:10032000500B138504C0A165EF00F00A89651385A1
:1003300004C0EF00500A0945EF00501AB9B5EF00AC
:100340009009ADB7EF00300955BFEFF2DFE01314AD
:10035000D500B7140140138504C02E948565EF00C5
:100360009007A1490D49938404C093178901E1873F
:10037000A165268563DB0708EF00B0058965268542
:10038000EF003005060989652685FD191379F90FF7
:10039000EF007004E39B09FCB7140140220461499B
:1003A000938404C0A165268563540406EF0070029F
:1003B00089652685EF00F001896526857D1906048B
:1003C000EF007001E31009FEB7190140A144014498
:1003D000138909C0060491654A851374F40FEF0070
:1003E000A07E19C11364140089654A85EF00607E00
:1003F00089654A85FD14EF00007EE9FC138509C07C
:100400008565EF00007D228549B3EF00C07CBDB754
:10041000EF00607C71BF13173500931745009316EA
:1004200055001376870093F707020A05D18F41899B
:1004300013760704C98FD18F13760708D18F1377EE
:100440000710D98F056713070780758FD98F056748
:10045000F98ED58F93E72700371701402326F780C1
:100460008280EFF2FFCD411185451145EF00A07C60
:1004700085452145EF00207C85454145EF00A07B67
:100480000D444149896B4C0037150140B7140140B8
:10049000231271014AC622C423130100EF00A06693
:1004A000094B4C0013850480231261014AC622C403
:1004B000992D91474C00138504802312F1004AC600
:1004C00022C49125A1474C00138504802312F1001A
:1004D0004AC622C40D2D130C00024C001385048063
:1004E000231281014AC622C4392D4C001385048091
:1004F000231221014AC622C43925930C00044C0062
:1005000013850480231291014AC622C4ED2B130DDA
:1005100000084C00138504802312A1014AC622C49E
:10052000DD23930D00104C0013850480056A23120F
:10053000B1014AC622C4C12B930A0A804C0013851C
:100540000480231251014AC622C4752B4C00138526
:100550000480231241014AC622C4752393098002F4
:10056000930700204C00138504C02312F1004EC6EF
:1005700022C4512B4C00138504C02312B1014EC676
:1005800022C451234C00138504C02312A1014EC67E
:1005900022C4952B4C00138504C0231291014EC632
:1005A00022C495234C00138504C0231281014EC63A
:1005B00022C4912B4C00138504C0231221014EC686
:1005C00022C49123930700404C00138504C02312DA
:1005D000F1004EC622C4052B4C00138504C0231223
:1005E00051014EC622C40523854A4C00138504C020
:1005F000231251014EC622C439234C00138504C076
:10060000231241014AC622C4FD294C00138504C0AF
:10061000231271014AC622C4FD21E1774C001385E3
:1006200004C02312F1004AC622C4F12991679149FE
:100630004C00138504C02312F1004EC622C4E121F0
:100640004C00138504C0231261014AC622C46529E7
:100650004C0013850480231251014EC622C465212B
:10066000410129BEEFF2DFB001457D2B0145592B39
:100670000545A52329451D2DB70528000145852BD6
:100680000545492329451D2513059003E1236DDD0B
:100690000945592B01B6EFF2BFAAE937DD23D13363
:1006A00005452D2D4D3E8965371501401D23371415
:1006B0000140894513050480292B914513050480C9
:1006C000C1648569392313090480FD149389C9D055
:1006D000056AA3840180138D9180130A0A808545E1
:1006E0004A85DD2111E1393E032684C0138BC18088
:1006F000938CA180B377960093D6974093D577409B
:100700008989858ACD8E93D557409189CD8E93D591
:100710003740A189CD8E93D517402396C180C189DA
:10072000060613760602CD8E9187D18E93F7070CBD
:10073000D58F2385F1801306A00A6398C716054656
:100740002300CD00CE9703C60700931536009317FC
:100750004600131556002387C18013F8850093F7D0
:1007600007020A06418AB3E70701D18F13F6050491
:10077000D18F13F60508D18F93F505103376450117
:10078000CD8FD18F0566718DC98F93E74700239870
:10079000F1802326F90003460D008947E311F6F4A2
:1007A000896537150140352189454A851D219145C7
:1007B0004A8515212384018023990180138A818031
:1007C000938B2181832784C0858BEDDF832784C0B1
:1007D000858BEDFF032684C03377960093579740AF
:1007E000935577408989858BCD8F93555740918953
:1007F000CD8F93553740A189CD8F93551740C1892F
:10080000060613760602CD8FD18F13564740137616
:10081000060C5D8E238BC180832784C0858BEDDF22
:10082000832784C0858BEDFF832584C02206B3F720
:10083000950013D7974013D577400989058B498FC9
:1008400013D557401189498F13D537402189498FD6
:1008500013D517402310BB0041898605498F93F5B6
:10086000050291874D8F93F7070CD98F2380FC00E9
:10087000A38BF180B297239AF180396D138C41815B
:10088000930D100883D50B00639FA5033714014017
:1008900013040480896537150140352E228589456A
:1008A0000D2E914522853526F5B71306500563991F
:1008B000C70083450D0005466394C500094649B548
:1008C00023000D0041B5832784C0858BEDDF83278E
:1008D00084C0858BEDFF032584C033779500935743
:1008E00097409358774093F82800858BB3E717011A
:1008F0009358574093F84800B3E71701935837408F
:1009000093F88800B3E717019358174093F808014C
:100910002310AB000605B3E7170113750502C98F55
:10092000118703550C00137707FCD98F2380FC0037
:10093000293C238CA180C53483C70C0013066006B4
:1009400005486396B70385472300FA0083D70B0059
:1009500003470A0085072390FB008947E314F7F259
:100960004A8589458D2C91454A85A52495B3639880
:10097000C70083470A00639407018947F1B7230042
:100980000A00E9B7B71702409843B706FFF84111CC
:100990001367170098C3D84337060200758FD8C372
:1009A0009843B706F7FEFD16758F98C39843B706B0
:1009B000FCFFFD16758F98C3D843B70681FFFD165F
:1009C000758FD8C337079F0098C702C402C69843E3
:1009D000C166558F98C3B7160240130700509C425A
:1009E000F18F3EC6A24785073EC4B24781E7A247C2
:1009F000E397E7FEB71702409C431397E700635461
:100A0000070885473EC632478547631CF706B72768
:100A100002409843B706C1FFFD161367070198C34C
:100A20009843719B98C398431367270098C3B717DF
:100A30000240D843D8C3D843D8C3D843136707402C
:100A4000D8C3D843758FD8C3D843B7061D00558F78
:100A5000D8C39843B7060001558F98C3984393169F
:100A60006700E3DD06FED843B7160240719BD8C38A
:100A7000D84313672700D8C32147DC42B18BE39EDC
:100A8000E7FE4101828002C6BDBF01A097010020A0
:100A9000938141D7174100201301C156171500005B
:100AA000130505B497F5FF1F9385C55513868180FF
:100AB00063FAC5008322050023A0550011059105A6
:100AC000E3EAC5FE13858180938501826377B500D3
:100AD000232005001105E36DB5FE93028008739095
:100AE000023097F2FFFF9382625593E212007390F7
:100AF0005230EFF03FE997020000938202BA739000
:100B00001234730020309C4513F7070113F8F700E7
:100B100001C7D8413368E80083D5050013F7F50F06
:100B200039C318418146854E3D4F930F8002930291
:100B30008004214E3396DE00B3F8C500631116031E
:100B40009398260033131F011343F3FF3377E30019
:100B5000B318180133E7E800639FF70550C985060D
:100B6000E39AC6FD18C11307F00F6375B70454412B
:100B70002146854E3D4F930F800293028004414EE3
:100B8000B398CE0033F715016392E80213172600DD
:100B900001173313EF001343F3FFB376D30033177A
:100BA000E800D98E639DF701232A15010506E31994
:100BB000C6FD54C18280E39457FA10C94DB7E3973C
:100BC00057FE23281501DDB708456D8D3335A0008C
:100BD00082800CC982804CC98280371702401C4336
:100BE00009C593E717001CC38280F99BEDBFB716B8
:100BF0000240DC423707C1FF7D17F98FDD8DC98DBB
:100C0000CCC2828009C9371702401C43B7060001D5
:100C1000D58F1CC38280B71602409C42370700FF65
:100C20007D17F98F9CC28280371702405C43F19B8D
:100C30005D8D48C3828099C5371702401C4F5D8D7A
:100C400008CF8280B7170240984F1345F5FF798D82
:100C500088CF82809357550005476399E700B717FF
:100C600002409C4333D5A7000589828009476396DB
:100C7000E700B71702409C53F5B7B7170240DC53A3
:100C8000D5B7B707002083A7070037177A001307E7
:100C90000720B3D7E70293F7F70F238EF1801307EE
:100CA000803EB387E702239DF1808280B7F700E0A2
:100CB00023A0070003C7C18123820700A382070086
:100CC000238307003305A702A3830700054798C3C2
:100CD00037F700E05C43E37FF5FE8280B7F700E082
:100CE00023A0070003D7A18123820700A382070066
:100CF000238307003305A702A3830700054798C392
:100D000037F700E05C43E37FF5FE8280F30EFF11CE
:100D100015002100E01A7713230DC20900C300E07B
:100D2000003100E83E82D3043E00D3053EAAD3073B
:100D3000131313133E55D307131313133E00D30796
:100D40003E10D305131313133E00D30513131313CF
:100D50003E00D3073E10D305131313133E00D305F3
:100D6000131313131313131313132100003E10D383
:100D700005131313133E00D3051313131313131387
:100D80001313131313131313DB0677237CFE80C294
:100D90004CE03E81D30713131313133E10D30513F6
:100DA000131313133E00D305131313131313131349
:100DB000131313131313133E66D3073E10D30513F7
:100DC000131313131313131313133E00D305C3008C
:100DD0000100000000000000000000000000000012
:100DE0000000000000000000000000000000000003
:100DF00000000000000000000000000000000000F3
:100E00000000000000000000000055AA00000000E3
:100E100000000000000000000000000000000000D2
:100E2000000000000055555555555555555555551B
:100E3000555555555555555555555555555500000C
:100E400000000000000000000000000000000000A2
:100E50000000000000000055555555555555555595
:100E60005555555555555555555555555555555532
:100E70000000000000000000000000000000000072
:100E8000000000000000000000555555555555550F
:100E90005555555555555555555555555555555502
:100EA0005555000000000000000000000000000098
:100EB0000000000000000000000000555555555589
:100EC00055555555555555555555555555555555D2
:100ED00055555555000000000000000000000000BE
:100EE0000000000055555555E60000000020202068
:100EF00020202020202020202020202020202020F2
:100F000020202020202000000101012300000000FB
:100F1000E68023F33E82D304018000111A012100F0
:100F2000801A77132305C20E01C300800021000040
:100F30007DD307D300000000E681237CD305DB06C8
:100F400077237CFE80C20380C30000000000000005
:100F5000000000000000000000000075000000001C
:100F6000E6822300000000000000000000000000F6
:100F70000000000000000000000000000000000071
:100F8000000000A500000000E68323000000000030
:100F90000000000000000000000000000000000051
:100FA0000000000000000000000000A6000000009B
:100FB000E6842300000000000000000000000000A4
:100FC0000000000000000000000000000000000021
:100FD000000000A700000000E685230000000000DC
:100FE0000000000000000000000000000000000001
:100FF0000000000000000000000000A80000000049
:10100000E686230000000000000000000000000051
:1010100000000000000000000000000000000000D0
:10102000000000A900000000E68723000000000087
:1010300000000000000000000000000000000000B0
:101040000000000000000000000000AA00000000F6
:101050000000000000000000000000000000000090
:101060000000000000000000000000000000000080
:101070000000000000000000000000000000000070
:101080000000000000000000000000000000000060
:0815DC0000A24A040000000017
:00000001FF
